:020000020000FC
:02000000FFC13E
:100400000FEF0DBF0FE30EBF06D0C0E0D0E22ED03D
:100410003DD0FDCFFFCF0F9304E00093660600931D
:10042000620608E0009365060093610608E1009308
:10043000A40903E30093A5090FE20093A60900EACB
:100440000093A7090F9108951F931091A10915FF1B
:10045000FCCF0093A0091F9108951F931091A1094B
:1004600017FFFCCF0091A0091F910895F6DF0D3012
:1004700041F0083021F00F3711F00993F7CF2197A1
:10048000F5CF00E00883C0E0D0E208950F93099112
:0C049000003011F0D9DFFBCF0F91089570
:00000001FF
